:020000040000FA
:06000000000000EF0FF00C
:101E0000D0A6F8EF0EF0816A700EC16E9D6AF29E48
:101E1000F29C900EAB6E240EAC6EAA6AAA86010EDE
:101E2000B06E030EAF6EAE50AE50AE50AA0E78EC50
:101E30000FF0020E7A6E310ECD6E9E807EEC0FF0AA
:101E4000EA0AD8A43FEF0FF07A6A45EF0FF07EEC74
:101E50000FF0796EE30AD8B44BEF0FF07950EA0A2D
:101E6000D8B445EF0FF07950ED0AD8A427EF0FF062
:101E7000E40E78EC0FF0020E7A6E7EEC0FF0CD6A75
:101E8000AB6AAC6A9E6AF8EF0EF0AE50AE50AE5040
:101E9000EB0E74EF0FF07EEC0FF0776E7EEC0FF030
:101EA000766E7EEC0FF0756E7EEC0FF0716E7B6ED1
:101EB0007EEC0FF0736E726A00EE20F07EEC0FF095
:101EC000EE6E7226712E5EEF0FF072507318E80EF0
:101ED000D8A474EF0FF0E70E78EC0FF09BEC0FF046
:101EE0000009E40ED8B4E50E78EC0FF027EF0FF000
:101EF00004009EA878EF0FF0AD6E120004007A5037
:101F0000D8B48FEF0FF09EA08FEF0FF0CD907A2E08
:101F10008BEF0FF0000C9E900B0ECF6ECD80ABB20E
:101F200097EF0FF09EAA7EEF0FF0AE501200AE506A
:101F3000AE50AE50000C775076107510D8A4A5EFB7
:101F40000FF01D0E766EF00E756E7750846F765022
:101F5000856F7550C00B866F75503F0B876F400EB5
:101F60007E6E000EEA6EC00EE96E8451F86E8551E9
:101F7000F76E8651F66E0900F550EE6E7E2EBBEFC1
:101F80000FF000EE20F0000EE26EC00E8725E16E2D
:101F90007B50716EEE50E66E712ECAEF0FF08451D9
:101FA000F86E8551F76E8651F66EA69CA68EA684B5
:101FB000A688F29E550EA76EAA0EA76EA6820000F6
:101FC000F28E876B080E7D6E00EEC0F0080E7E6EFE
:101FD000EE50F56E0D007E2EE8EF0FF0865187254E
:101FE000F66E080E8727F29E550EA76EAA0EA76EF4
:101FF000A6820000F28E7D2EE6EF0FF0A694010C73
:020000040030CA
:0E000000FFB2FFF1FFEFFBFFFFFFFFFFFFFF6F
:00000001FF
